:020000040000FA
:020000000528D1
:06000A0005190828052875
:1000100083161F30850010308600831206100518E5
:1000200012280F2885195F20051A622021308600CA
:10003000562085195F20051A62202330860056203D
:1000400085195F20051A6220273086005620851901
:100050005F20051A62202F280F2806102F288518E8
:1000600032282F2885195F20051A62202730860044
:10007000562085195F20051A6220233086005620FD
:1000800085195F20051A62202130860056208519C7
:100090005F20051A622020308600562085195F20D7
:1000A000051A62200F282F2806100F28FF308C0019
:1000B000C3308D008D0B5A288C0B58280800051969
:1000C00008005F2808308600562000308600562041
:0200D0006228A4
:02400E00F33F7E
:00000001FF
